{
  "contractName": "MatchScore",
  "abi": [
    {
      "inputs": [
        {
          "internalType": "uint256",
          "name": "_matchid",
          "type": "uint256"
        }
      ],
      "stateMutability": "nonpayable",
      "type": "constructor"
    },
    {
      "inputs": [],
      "name": "matchid",
      "outputs": [
        {
          "internalType": "uint256",
          "name": "",
          "type": "uint256"
        }
      ],
      "stateMutability": "view",
      "type": "function"
    },
    {
      "inputs": [],
      "name": "player1_score",
      "outputs": [
        {
          "internalType": "uint256",
          "name": "",
          "type": "uint256"
        }
      ],
      "stateMutability": "view",
      "type": "function"
    },
    {
      "inputs": [],
      "name": "player2_score",
      "outputs": [
        {
          "internalType": "uint256",
          "name": "",
          "type": "uint256"
        }
      ],
      "stateMutability": "view",
      "type": "function"
    },
    {
      "inputs": [],
      "name": "increment_player1",
      "outputs": [],
      "stateMutability": "nonpayable",
      "type": "function"
    },
    {
      "inputs": [],
      "name": "increment_player2",
      "outputs": [],
      "stateMutability": "nonpayable",
      "type": "function"
    },
    {
      "inputs": [],
      "name": "getMatchId",
      "outputs": [
        {
          "internalType": "uint256",
          "name": "",
          "type": "uint256"
        }
      ],
      "stateMutability": "view",
      "type": "function"
    },
    {
      "inputs": [],
      "name": "getPlayer1Score",
      "outputs": [
        {
          "internalType": "uint256",
          "name": "",
          "type": "uint256"
        }
      ],
      "stateMutability": "view",
      "type": "function"
    },
    {
      "inputs": [],
      "name": "getPlayer2Score",
      "outputs": [
        {
          "internalType": "uint256",
          "name": "",
          "type": "uint256"
        }
      ],
      "stateMutability": "view",
      "type": "function"
    }
  ],
  "bytecode": "0x60a060405260008055600060015534801561001957600080fd5b5060405161039f38038061039f833981810160405281019061003b919061005e565b8060808181525050506100a8565b60008151905061005881610091565b92915050565b60006020828403121561007057600080fd5b600061007e84828501610049565b91505092915050565b6000819050919050565b61009a81610087565b81146100a557600080fd5b50565b6080516102d56100ca60003960008181610159015261019801526102d56000f3fe608060405234801561001057600080fd5b50600436106100885760003560e01c806383878e1a1161005b57806383878e1a146100dd5780638977b267146100fb578063dc2ab89514610119578063eb9d62d11461013757610088565b8063153dc1821461008d57806327e7812d146100ab5780633e72aec8146100b55780637688697d146100d3575b600080fd5b610095610155565b6040516100a29190610202565b60405180910390f35b6100b361017d565b005b6100bd610196565b6040516100ca9190610202565b60405180910390f35b6100db6101ba565b005b6100e56101d4565b6040516100f29190610202565b60405180910390f35b6101036101de565b6040516101109190610202565b60405180910390f35b6101216101e4565b60405161012e9190610202565b60405180910390f35b61013f6101ed565b60405161014c9190610202565b60405180910390f35b60007f0000000000000000000000000000000000000000000000000000000000000000905090565b60008081548092919061018f90610227565b9190505550565b7f000000000000000000000000000000000000000000000000000000000000000081565b600160008154809291906101cd90610227565b9190505550565b6000600154905090565b60005481565b60008054905090565b60015481565b6101fc8161021d565b82525050565b600060208201905061021760008301846101f3565b92915050565b6000819050919050565b60006102328261021d565b91507fffffffffffffffffffffffffffffffffffffffffffffffffffffffffffffffff82141561026557610264610270565b5b600182019050919050565b7f4e487b7100000000000000000000000000000000000000000000000000000000600052601160045260246000fdfea26469706673582212201cce71bf0411247fe7b6730a83c65a663bf66214581642a32b328c4674b0b38864736f6c63430008000033",
  "immutableReferences": {
    "3": [
      {
        "length": 32,
        "start": 345
      },
      {
        "length": 32,
        "start": 408
      }
    ]
  },
  "source": "// SPDX-License-Identifier: MIT\npragma solidity ^0.8.0;\n\ncontract MatchScore {\n    uint public immutable matchid;\n    uint public player1_score = 0;\n    uint public player2_score = 0;\n\n    constructor(uint _matchid) { matchid = _matchid; }\n\n    function increment_player1() public { player1_score++; }\n    function increment_player2() public { player2_score++; }\n\n    function getMatchId() public view returns (uint) { return matchid; }\n    function getPlayer1Score() public view returns (uint) { return player1_score; }\n    function getPlayer2Score() public view returns (uint) { return player2_score; }\n}",
  "sourcePath": "/home/mirror/42/ft_transendence/blockchain/contracts/MatchScore.sol",
  "compiler": {
    "name": "solc",
    "version": "0.8.0+commit.c7dfd78e.Emscripten.clang"
  },
  "schemaVersion": "3.4.16",
  "updatedAt": "2025-02-08T23:22:38.041Z",
  "devdoc": {
    "kind": "dev",
    "methods": {},
    "version": 1
  },
  "userdoc": {
    "kind": "user",
    "methods": {},
    "version": 1
  }
}