{
  "contractName": "MyContract",
  "abi": [
    {
      "inputs": [
        {
          "internalType": "string",
          "name": "initialMessage",
          "type": "string"
        }
      ],
      "stateMutability": "nonpayable",
      "type": "constructor"
    },
    {
      "inputs": [],
      "name": "message",
      "outputs": [
        {
          "internalType": "string",
          "name": "",
          "type": "string"
        }
      ],
      "stateMutability": "view",
      "type": "function"
    },
    {
      "inputs": [
        {
          "internalType": "string",
          "name": "newMessage",
          "type": "string"
        }
      ],
      "name": "updateMessage",
      "outputs": [],
      "stateMutability": "nonpayable",
      "type": "function"
    }
  ],
  "bytecode": "0x608060405234801561001057600080fd5b506040516107283803806107288339818101604052810190610032919061015a565b806000908051906020019061004892919061004f565b50506102bf565b82805461005b9061022f565b90600052602060002090601f01602090048101928261007d57600085556100c4565b82601f1061009657805160ff19168380011785556100c4565b828001600101855582156100c4579182015b828111156100c35782518255916020019190600101906100a8565b5b5090506100d191906100d5565b5090565b5b808211156100ee5760008160009055506001016100d6565b5090565b6000610105610100846101cc565b61019b565b90508281526020810184848401111561011d57600080fd5b6101288482856101fc565b509392505050565b600082601f83011261014157600080fd5b81516101518482602086016100f2565b91505092915050565b60006020828403121561016c57600080fd5b600082015167ffffffffffffffff81111561018657600080fd5b61019284828501610130565b91505092915050565b6000604051905081810181811067ffffffffffffffff821117156101c2576101c1610290565b5b8060405250919050565b600067ffffffffffffffff8211156101e7576101e6610290565b5b601f19601f8301169050602081019050919050565b60005b8381101561021a5780820151818401526020810190506101ff565b83811115610229576000848401525b50505050565b6000600282049050600182168061024757607f821691505b6020821081141561025b5761025a610261565b5b50919050565b7f4e487b7100000000000000000000000000000000000000000000000000000000600052602260045260246000fd5b7f4e487b7100000000000000000000000000000000000000000000000000000000600052604160045260246000fd5b61045a806102ce6000396000f3fe608060405234801561001057600080fd5b50600436106100365760003560e01c80631923be241461003b578063e21f37ce14610057575b600080fd5b61005560048036038101906100509190610228565b610075565b005b61005f61008f565b60405161006c91906102a2565b60405180910390f35b806000908051906020019061008b92919061011d565b5050565b6000805461009c90610383565b80601f01602080910402602001604051908101604052809291908181526020018280546100c890610383565b80156101155780601f106100ea57610100808354040283529160200191610115565b820191906000526020600020905b8154815290600101906020018083116100f857829003601f168201915b505050505081565b82805461012990610383565b90600052602060002090601f01602090048101928261014b5760008555610192565b82601f1061016457805160ff1916838001178555610192565b82800160010185558215610192579182015b82811115610191578251825591602001919060010190610176565b5b50905061019f91906101a3565b5090565b5b808211156101bc5760008160009055506001016101a4565b5090565b60006101d36101ce846102f5565b6102c4565b9050828152602081018484840111156101eb57600080fd5b6101f6848285610341565b509392505050565b600082601f83011261020f57600080fd5b813561021f8482602086016101c0565b91505092915050565b60006020828403121561023a57600080fd5b600082013567ffffffffffffffff81111561025457600080fd5b610260848285016101fe565b91505092915050565b600061027482610325565b61027e8185610330565b935061028e818560208601610350565b61029781610413565b840191505092915050565b600060208201905081810360008301526102bc8184610269565b905092915050565b6000604051905081810181811067ffffffffffffffff821117156102eb576102ea6103e4565b5b8060405250919050565b600067ffffffffffffffff8211156103105761030f6103e4565b5b601f19601f8301169050602081019050919050565b600081519050919050565b600082825260208201905092915050565b82818337600083830152505050565b60005b8381101561036e578082015181840152602081019050610353565b8381111561037d576000848401525b50505050565b6000600282049050600182168061039b57607f821691505b602082108114156103af576103ae6103b5565b5b50919050565b7f4e487b7100000000000000000000000000000000000000000000000000000000600052602260045260246000fd5b7f4e487b7100000000000000000000000000000000000000000000000000000000600052604160045260246000fd5b6000601f19601f830116905091905056fea26469706673582212206ccd3e34d2412c665b08bb0a1c8f6b06692429fcb4a931b5ccc14dbdff1cd5be64736f6c63430008000033",
  "immutableReferences": {},
  "source": "// SPDX-License-Identifier: MIT\npragma solidity ^0.8.0;\n\ncontract MyContract {\n    string public message;\n\n    constructor(string memory initialMessage) {\n        message = initialMessage;\n    }\n\n    function updateMessage(string memory newMessage) public {\n        message = newMessage;\n    }\n}\n",
  "sourcePath": "/home/mirror/ft_transcendence/sol/contracts/MyContract.sol",
  "compiler": {
    "name": "solc",
    "version": "0.8.0+commit.c7dfd78e.Emscripten.clang"
  },
  "schemaVersion": "3.4.16",
  "updatedAt": "2025-02-08T18:18:23.175Z",
  "devdoc": {
    "kind": "dev",
    "methods": {},
    "version": 1
  },
  "userdoc": {
    "kind": "user",
    "methods": {},
    "version": 1
  }
}