{
  "contractName": "Score",
  "abi": [
    {
      "inputs": [],
      "name": "score",
      "outputs": [
        {
          "internalType": "uint256",
          "name": "",
          "type": "uint256"
        }
      ],
      "stateMutability": "view",
      "type": "function"
    },
    {
      "inputs": [],
      "name": "increment",
      "outputs": [],
      "stateMutability": "nonpayable",
      "type": "function"
    },
    {
      "inputs": [],
      "name": "getScore",
      "outputs": [
        {
          "internalType": "uint256",
          "name": "",
          "type": "uint256"
        }
      ],
      "stateMutability": "view",
      "type": "function"
    }
  ],
  "bytecode": "0x60806040526000805534801561001457600080fd5b50610196806100246000396000f3fe608060405234801561001057600080fd5b50600436106100415760003560e01c8063afd8206714610046578063d09de08a14610064578063efedc6691461006e575b600080fd5b61004e61008c565b60405161005b91906100c3565b60405180910390f35b61006c610095565b005b6100766100ae565b60405161008391906100c3565b60405180910390f35b60008054905090565b6000808154809291906100a7906100e8565b9190505550565b60005481565b6100bd816100de565b82525050565b60006020820190506100d860008301846100b4565b92915050565b6000819050919050565b60006100f3826100de565b91507fffffffffffffffffffffffffffffffffffffffffffffffffffffffffffffffff82141561012657610125610131565b5b600182019050919050565b7f4e487b7100000000000000000000000000000000000000000000000000000000600052601160045260246000fdfea2646970667358221220eaedc330b0ff46ad59ff6eda3614ff0771338525bdb62463605a21f9a64f875864736f6c63430008000033",
  "immutableReferences": {},
  "source": "// SPDX-License-Identifier: MIT\npragma solidity ^0.8.0;\n\ncontract Score {\n    uint public score = 0;\n\n    function increment() public {\n        score++;\n    }\n\n    function getScore() public view returns (uint) {\n        return score;\n    }\n}",
  "sourcePath": "/home/mirror/42/ft_transendence/blockchain/contracts/Score.sol",
  "compiler": {
    "name": "solc",
    "version": "0.8.0+commit.c7dfd78e.Emscripten.clang"
  },
  "schemaVersion": "3.4.16",
  "updatedAt": "2025-02-08T22:38:15.962Z",
  "devdoc": {
    "kind": "dev",
    "methods": {},
    "version": 1
  },
  "userdoc": {
    "kind": "user",
    "methods": {},
    "version": 1
  }
}