{
  "contractName": "StringIntMap",
  "abi": [
    {
      "anonymous": false,
      "inputs": [
        {
          "indexed": true,
          "internalType": "string",
          "name": "key",
          "type": "string"
        },
        {
          "indexed": false,
          "internalType": "uint256",
          "name": "value",
          "type": "uint256"
        }
      ],
      "name": "MapUpdated",
      "type": "event"
    },
    {
      "inputs": [
        {
          "internalType": "string",
          "name": "key",
          "type": "string"
        },
        {
          "internalType": "uint256",
          "name": "value",
          "type": "uint256"
        }
      ],
      "name": "setValue",
      "outputs": [],
      "stateMutability": "nonpayable",
      "type": "function"
    },
    {
      "inputs": [
        {
          "internalType": "string",
          "name": "key",
          "type": "string"
        }
      ],
      "name": "getValue",
      "outputs": [
        {
          "internalType": "uint256",
          "name": "",
          "type": "uint256"
        }
      ],
      "stateMutability": "view",
      "type": "function"
    }
  ],
  "bytecode": "0x608060405234801561001057600080fd5b506103e5806100206000396000f3fe608060405234801561001057600080fd5b50600436106100365760003560e01c80637c2da7aa1461003b578063960384a014610057575b600080fd5b610055600480360381019061005091906101e0565b610087565b005b610071600480360381019061006c919061019f565b6100fb565b60405161007e919061028b565b60405180910390f35b806000836040516100989190610274565b908152602001604051809103902081905550816040516100b89190610274565b60405180910390207f96aff4609b7671230f8dbd03b4a266a6984936dae42071ad2508dc9f9f079264826040516100ef919061028b565b60405180910390a25050565b6000808260405161010c9190610274565b9081526020016040518091039020549050919050565b6000610135610130846102d7565b6102a6565b90508281526020810184848401111561014d57600080fd5b610158848285610327565b509392505050565b600082601f83011261017157600080fd5b8135610181848260208601610122565b91505092915050565b60008135905061019981610398565b92915050565b6000602082840312156101b157600080fd5b600082013567ffffffffffffffff8111156101cb57600080fd5b6101d784828501610160565b91505092915050565b600080604083850312156101f357600080fd5b600083013567ffffffffffffffff81111561020d57600080fd5b61021985828601610160565b925050602061022a8582860161018a565b9150509250929050565b600061023f82610307565b6102498185610312565b9350610259818560208601610336565b80840191505092915050565b61026e8161031d565b82525050565b60006102808284610234565b915081905092915050565b60006020820190506102a06000830184610265565b92915050565b6000604051905081810181811067ffffffffffffffff821117156102cd576102cc610369565b5b8060405250919050565b600067ffffffffffffffff8211156102f2576102f1610369565b5b601f19601f8301169050602081019050919050565b600081519050919050565b600081905092915050565b6000819050919050565b82818337600083830152505050565b60005b83811015610354578082015181840152602081019050610339565b83811115610363576000848401525b50505050565b7f4e487b7100000000000000000000000000000000000000000000000000000000600052604160045260246000fd5b6103a18161031d565b81146103ac57600080fd5b5056fea264697066735822122092d119d871006306f85e5f42ca25ed037391d9287d1ee36a5d7e2dd2f287a25a64736f6c63430008000033",
  "immutableReferences": {},
  "source": "// SPDX-License-Identifier: MIT\npragma solidity ^0.8.0;\n\ncontract StringIntMap {\n    mapping(string => uint256) private stringIntMap;\n\n    event MapUpdated(string indexed key, uint256 value);\n\n    function setValue(string memory key, uint256 value) public {\n        stringIntMap[key] = value;\n        emit MapUpdated(key, value);\n    }\n\n    function getValue(string memory key) public view returns (uint256) {\n        return stringIntMap[key];\n    }\n}",
  "sourcePath": "/home/mirror/ft_transcendence/sol/contracts/stringIntMap.sol",
  "compiler": {
    "name": "solc",
    "version": "0.8.0+commit.c7dfd78e.Emscripten.clang"
  },
  "schemaVersion": "3.4.16",
  "updatedAt": "2025-02-08T18:18:23.175Z",
  "devdoc": {
    "kind": "dev",
    "methods": {},
    "version": 1
  },
  "userdoc": {
    "kind": "user",
    "methods": {},
    "version": 1
  }
}